:020000040800F2
:1000000088060020AD010008D70F0008D50F0008B2
:1000100000000000000000000000000000000000E0
:10002000000000000000000000000000DB0F0008DE
:100030000000000000000000D90F0008DD0F0008DC
:10004000BF010008BF010008BF010008BF01000890
:10005000BF010008BF010008BF010008BF01000880
:10006000BF010008BF010008BF010008BF01000870
:10007000BF010008BF010008BF010008BF01000860
:10008000BF010008BF010008BF010008BF01000850
:10009000BF010008BF010008BF010008BF01000840
:1000A000BF010008BF010008BF01000839100008A7
:1000B000BF010008BF010008BF010008BF01000820
:1000C00000F002F800F047F80CA030C808382418F7
:1000D0002D18A246671EAB4654465D46AC4201D180
:1000E00000F039F87E460F3E0FCCB646012633426B
:1000F00000D0FB1AA246AB46334318478C120000CF
:10010000AC120000103A02D378C878C1FAD852076E
:1001100001D330C830C101D504680C6070470000BD
:100120000023002400250026103A01D378C1FBD813
:10013000520700D330C100D50B6070471FB500F0E7
:10014000B9FA04000020002101F0ECF8401C6060C6
:100150001FBD10B510BD00F08EFA1146FFF7EEFF7F
:1001600001F080F800F0B9FA03B4FFF7F2FF03BC26
:1001700000F000FB70B505460C46164602E00FCCB9
:100180000FC5103E102EFAD2082E02D303CC03C5A1
:10019000083E042E07D301CC01C5361F03E02178A9
:1001A0002970641C6D1C761EF9D270BD074880470B
:1001B00007480047FEE7FEE7FEE7FEE7FEE7FEE74B
:1001C00004480549054A064B7047000035100008F1
:1001D000C100000888000020880600208802002056
:1001E00088020020FEB5054610460C46184373D021
:1001F000AE468C460020AD1A01469C4167D3664648
:10020000002701243D46B61A9D4102D313463A46C3
:100210002124654676462F04360C3E432D0CB61A33
:100220009D4104D3150C1B042B4312041034654666
:1002300076462F06360A3E432D0AB61A9D4104D350
:10024000150E1B022B4312020834654676462F0713
:1002500036093E432D09B61A9D4104D3150F1B01E3
:100260002B431201241D65467646AF07B6083E4370
:10027000AD08B61A9D4104D3950F9B002B43920005
:10028000A41C65467646EF0776083E436D08B61A0D
:100290009D411AD392185B41641C16E00018764603
:1002A00065464941B71A9D410191009009D36046C6
:1002B000B11A98418E468446009801990025401C49
:1002C0006941DD0752082A435B08641EE6D5724681
:1002D000634603B0F0BDFFE700200146C046C046BC
:1002E0002A462346F5E770B5064600F029F904686A
:1002F000054630460A22002100F026F92C6070BD28
:100300000346F0B50B439B072DD1244DEF01042A82
:1003100029D308C810C95E1B9E43121F3E4017D048
:10032000D8B2E1B2401A3106014310D198B2A1B25D
:10033000401A310401430AD118022102000A090AB5
:10034000401A3102014302D1180E210E401AF0BDAD
:10035000A342DCD018BA21BA884201D90120F0BDED
:100360000020C043F0BD002A01D10020F0BD037879
:100370000C78401C491C002B0DD0A3420BD1521EFF
:1003800009D003780C78401C491C002B03D0A342F1
:1003900001D1521EEBD1181BF0BD0000010101017B
:1003A00001E004C0091F0429FBD28B0701D502809C
:1003B000801CC90700D00270704700290BD0C3070A
:1003C00002D00270401C491E022904D3830702D5C3
:1003D0000280801C891EE3E70022EEE70022DFE7AF
:1003E000002203098B422CD3030A8B4211D3002332
:1003F0009C464EE003460B433CD4002243088B420C
:1004000031D303098B421CD3030A8B4201D3944698
:100410003FE0C3098B4201D3CB01C01A524183098B
:100420008B4201D38B01C01A524143098B4201D345
:100430004B01C01A524103098B4201D30B01C01A70
:100440005241C3088B4201D3CB00C01A52418308EA
:100450008B4201D38B00C01A524143088B4201D317
:100460004B00C01A5241411A00D201465241104677
:1004700070475DE0CA0F00D04942031000D34042EC
:10048000534000229C4603098B422DD3030A8B4222
:1004900012D3FC22890112BA030A8B420CD38901C0
:1004A00092118B4208D3890192118B4204D38901A6
:1004B0003AD0921100E08909C3098B4201D3CB01E4
:1004C000C01A524183098B4201D38B01C01A524199
:1004D00043098B4201D34B01C01A524103098B429D
:1004E00001D30B01C01A5241C3088B4201D3CB0088
:1004F000C01A524183088B4201D38B00C01A52416B
:10050000D9D243088B4201D34B00C01A5241411A41
:1005100000D20146634652415B10104601D340426F
:10052000002B00D54942704763465B1000D3404220
:1005300001B50020C046C04602BD704770477047F5
:100540000048704724000020F7B50F460026009CA5
:100550002578641C002D05D000F032F80068405D5D
:10056000C007F5D12B2D02D02D2D18D0641E394691
:10057000029A204600F02CF8002F04D03968A142DE
:1005800001D1009939607105022400290BDA40423B
:10059000002803DDFFF7D4FF0460A007FEBD0120A3
:1005A00080020643E3E70028F8DAFFF7C9FF04609A
:1005B0000048FEBDFFFFFF7F004870472400002079
:1005C00010B500F077F8001D10BD00BF590D0000F8
:1005D000F7B5154682B00027029C2078641C01976D
:1005E000302802D0002D15D015E020780127641C9A
:1005F000782804D0582802D0002D09D00BE0002D17
:1006000001D0102D07D1207800271025641C02E0AE
:10061000082500E00A250026009610E00099012731
:100620006943081829467143020C80B200908E1865
:100630003804864201D3012001902078641C2946A9
:1006400000F03CF80028E9DA0398002805D0002FD4
:1006500001D0641E00E0029C04600198002806D0CE
:10066000FFF76EFF02210160C81E05B0F0BD0099C2
:1006700030040843F9E77546FFF79EFFAE460500D4
:1006800069465346C008C000854618B020B5FFF73C
:1006900097FD60BC00274908B6460026C0C5C0C506
:1006A000C0C5C0C5C0C5C0C5C0C5C0C5403D490066
:1006B0008D46704700487047440000203A2800D219
:1006C0003038202302469A43412A01D31046373856
:1006D000884201D30020C043704710B50446C0468D
:1006E000C0462046FFF740FD10BD0000024670B531
:1006F0000A4392072AD11E4DEE0104C808C9541BB3
:100700009443344017D0D0B2D9B2401A21060143E5
:1007100010D190B299B2401A210401430AD11002BB
:100720001902000A090A401A2102014302D1100EDF
:10073000190E401A70BD9A42DFD010BA19BA884219
:1007400001D9012070BD0020C04370BD02780B7834
:10075000401C491C002A09D09A4207D102780B7824
:10076000401C491C002A01D09A42EFD0D01A70BD1B
:100770000101010101491820ABBEFEE7260002007D
:1007800070470000F8B5002303240125BFE02E4682
:100790009E40B44632407CD00E79B607B60F012E8B
:1007A00001D0022E17D186682746B6465E00B740B4
:1007B00000967646BE43B646CF68009EB740764662
:1007C0003743876046686746BE430F79FF06FF0FD1
:1007D0009F40374347600E79F643B6070ED0C66890
:1007E0002746B4465E00B646B7406646BE43B446AA
:1007F0008F687646B74066463743C7600E79B607BE
:10080000B60F022E14D1DE08B60036180096366AEE
:100810005F07B446FE0E0F27B646B7406646BE4396
:10082000B4460F697646B74066463743009E376246
:1008300006682746B4465E00B646B7406646BE43E5
:100840000F79B446BF07BF0F7646B74066463743B9
:1008500007604E68B603B60F58D0304FBE692E43BE
:10086000BE61BE699F08F607F60F2D4EBF00BE1988
:100870000096B6680F27B4469E07360FB646B740B7
:100880006646BE430927FF06B446B84202D1002798
:1008900015E03BE0234FB84201D101270FE0224F82
:1008A000B84201D102270AE0204FB84201D1032704
:1008B00005E01F4FB84201D1042700E00527764626
:1008C000B74066463743009EB7601A4E36684F6899
:1008D0009643FF0300D51643164F3E607E684F686F
:1008E0009643BF0300D51643124F7E60BE684F6823
:1008F0009643FF0200D516430E4FBE60FE684F6858
:100900009643BF0200D516430A4AD6605B1C0A68AC
:100910001646DE4000D03AE7F8BD00000010024065
:10092000000001400004004800080048000C004896
:100930000010004800040140426913460B401B04AC
:1009400091430B4383617047014880687047000002
:10095000040000200248816802788918816070478D
:100960000400002010B50648016810221143016000
:10097000032000F007F800F027F8002010BD000069
:100980000020024070B504460D4D7D202978C0003E
:10099000FFF726FD01460B480068FFF721FD00F038
:1009A00001FB002809D1042C07D200222146401E59
:1009B00000F01EF800206C6070BD012070BD0000CA
:1009C000040000201000002008B5084881690122B9
:1009D00011438161816911400091C26901040A4398
:1009E000C261C0690840009008BD000000100240CC
:1009F00010B500F015FC10BDF8B50F4606005FD02D
:100A00003D4D2868C007C00FB84209D22868400889
:100A10004000384328602868C007C00FB8424FD153
:100A20003068364C81070CD5400704D56068072133
:100A30000902084360606068F0218843B168084398
:100A400060603078C0072CD07068012810D0022870
:100A500011D0032812D021688907002930DA616893
:100A60008908890001436160FFF76EFF009011E083
:100A700021688903F1E721688901EEE7616BC90309
:100A8000EBE7FFF761FF0099411A1D48814201D948
:100A90000320F8BD60680C21084071688900884215
:100AA000EFD12868C007C00FB8420BD928684008AA
:100AB0004000384328602868C007C00FB84201D002
:100AC0000120F8BD3078400706D56068072109028B
:100AD0008843F1680843606000F018F86168094ACB
:100AE0000906090F515CC840074908600320FFF759
:100AF00049FF0020F8BD0000002002400010024025
:100B000088130000781300081000002030B519A3E6
:100B10000FCB89B06C460FC41AA30FCB0FC41D4A6C
:100B200051680C200B4603401B48042B05D01B4D7D
:100B3000082B04D00C2B00D1284609B030BD8B0205
:100B40001B0F6C46E45CD26A04AB1207120FC90398
:100B50009A5C890F022901D0032901D0002301E00A
:100B6000002328460021FFF73DFB214600F040FB13
:100B7000E3E7000002030405060708090A0B0C0D51
:100B80000E0F10100102030405060708090A0B0CDA
:100B90000D0E0F100010024000127A00006CDC02F3
:100BA000FEB5040070D02078F94EFA4DC00748D049
:100BB00068680007800F01281FD068680007800F51
:100BC000022804D16868C003800F022815D061682C
:100BD000012919D001208004002901D0052917D04E
:100BE0002968B14329602968814329606068002829
:100BF0001BD0FFF7A9FE074613E02868800320D525
:100C000060680028CED01CE0286830432860EDE7FB
:100C1000296801432960F7E7FFF796FEC01B6428A7
:100C200070D828688003F7D50BE0FFF78DFE0746E4
:100C300004E0FFF789FEC01B6428F1D82868800310
:100C4000F7D4207880073FD568680007800F14D05C
:100C500068680007800F022804D16868C003800F0D
:100C600001280AD0E068002828681ED00121084326
:100C70002860FFF769FE07460CE0286880070CD55E
:100C8000E068012800D108E080E1FFF75DFEC01BAD
:100C90000228C5D828688007F7D52868F821884336
:100CA0002169C900084328600EE040084000286020
:100CB000FFF74AFE074604E0FFF746FEC01B022886
:100CC000AED828688007F7D42078000723D5E069DC
:100CD0000028686A0FD0012108436862FFF734FEDC
:100CE000074604E0FFF730FEC01B022898D8686A68
:100CF0008007F7D50FE0400840006862FFF724FE48
:100D0000074605E0C3E0FFF71FFEC01B022887D897
:100D1000686A8007F7D4207804274007002861DA42
:100D200000200190E869C00008D4E969B8060143D1
:100D3000E961E9690140012000910190964801684C
:100D4000C90511D40168821511430160FFF7FCFD4C
:100D5000009005E0FFF7F8FD0099401A642898D844
:100D60008D480068C005F5D5A06801280AD0002884
:100D700001D0052811D0286A400840002862286A5E
:100D8000B84302E0286A012108432862A0680028CD
:100D900012D0FFF7D9FD00900AE0286A3843286294
:100DA000F0E7FFF7D1FD0099411A7C4881426ED8E7
:100DB000286A8007F5D50DE0FFF7C6FD009006E034
:100DC000FFF7C2FD0099411A744881425FD8286A32
:100DD0008007F5D40198002804D0E96901200007B4
:100DE0008143E9612078C00635D5606901280CD0BF
:100DF000401D686B24D038436863686B400840002E
:100E00006863FFF7A1FD074622E0686B384368631B
:100E1000686B012108436863FFF796FD074604E00D
:100E2000FFF792FDC01B022831D8686B8007F7D509
:100E3000686BF8218843A169C900084368630AE028
:100E4000B8436863F4E7FFF77FFDC01B02281ED894
:100E5000686B8007F7D42078800637D5686800076C
:100E6000800F032814D068680007800F022804D17F
:100E70006868C003800F03280AD0206A0028686BC6
:100E800016D030436863FFF75FFD06460CE062E072
:100E9000686BC0031AD5206A012877D116E0FFF7E6
:100EA00053FD801B022856D8686BC003F7D50DE0B0
:100EB000B0436863FFF748FD064604E0FFF744FDD2
:100EC000801B022847D8686BC003F7D4606A0028EB
:100ED00066D069680907890F022942D001263606C3
:100EE0000228286805D0B0432860FFF72DFD04468E
:100EF00033E0B0432860FFF727FD074604E0FFF723
:100F000023FDC01B022826D828688001F7D4E86A90
:100F1000216B000900010843E862A16AE06A084306
:100F200069687B22D2039143084368602868304394
:100F30002860FFF709FD044604E0FFF705FD001BEC
:100F4000022808D828688001F7D529E0FFF7FCFCC3
:100F5000001B022801D90320FEBD28688001F5D4BA
:100F60001EE00128F8D06868E96A0322D203A36A68
:100F700002409A420AD10907226B090F914205D11A
:100F80000F2189040840E16A884209D00120FEBD92
:100F900000000100001002400070004088130000B3
:100FA0000020F4E7094910B5401E884201D901200C
:100FB00010BD074C60610321081F00F031F90020CB
:100FC000A06107202061002010BD0000FFFFFF008E
:100FD00000E000E0FEE7FEE77047704710B5FFF75E
:100FE000B9FC10BD10B592B034216846FFF7F6F990
:100FF00000240F94022000900D9401200E94039081
:1010000010200994049010946846FFF7C9FD002849
:1010100001D072B6FEE707200D900E940F940021C8
:1010200010940DA8FFF7E8FC002801D072B6FEE787
:1010300012B010BD7047000070B555488088554CFF
:10104000C1B2554D0A2903D028682154401C97E0AD
:10105000022252A14F48FFF753F9514E00287ED08B
:10106000022250A14B48FFF74BF9002877D002220B
:101070004DA14848FFF744F9002870D002224BA147
:101080004448FFF73DF9002869D0022248A14148B1
:10109000FFF736F9002862D0022246A13D48FFF74B
:1010A0002FF900285BD0042243A13A48FFF728F922
:1010B00000284ED0042242A13648FFF721F900282B
:1010C00047D0032240A13348FFF71AF900284BD03C
:1010D00002223EA12F48FFF713F900283FD0022239
:1010E0003BA12C48FFF70CF9002838D0022239A187
:1010F0002848FFF705F9002831D0022236A12548FB
:10110000FFF7FEF800282AD0022234A12148FFF779
:10111000F7F8002823D0022231A11E48FFF7F0F88B
:1011200000281CD002222FA11A48FFF7E9F8002856
:1011300015D003222CA11748FFF7E2F8002813D09E
:1011400003222AA11348FFF7DBF800280CD012E095
:1011500005E040213046FFF7EFFB201D09E040216C
:101160003046FFF7E9FB06E040213046FFF7E4FB9D
:10117000E01CFFF7B8F810210648FFF72DF9002012
:10118000286003482038016820221143016070BDA7
:101190002038014014000020000000203C330000F3
:1011A0000008004855500000444E00005031000037
:1011B00050320000484D00005350313D0000000007
:1011C0005350323D00000000474E3D005354000094
:1011D0004C5500004C4400005255000052440000A1
:1011E000524D0000544D000052533D0054533D00F9
:1011F000F8B5040C8BB2264682B25E430D0C104645
:10120000370C5843360480190021794116466E4345
:10121000370C36048019794126466E438919F8BD8A
:101220008307FF22DB0E9A408907090E99400028A8
:1012300008DB830809489B001B1818689043084383
:10124000186070470007000F0838830804489B00A7
:101250001B18D86990430843D861704700E400E048
:1012600000ED00E08CB0FFF77DFBFFF7BBFE2748E9
:101270004269012149040A43426142690A400A92D3
:10128000426989000A43426142690A400A928269BE
:1012900049110A43826182690A400A9281690122E6
:1012A0001143816180691A4910400A9014226846EE
:1012B000FEF760FF69461748FFF764FA14491422E5
:1012C000143105A8FEF756FF0924E40605A92046B7
:1012D000FFF758FA606AFF211131084360620E4837
:1012E0004521C16001680D22114301600B490A6864
:1012F0001202120AE3001A430A60094AD910116067
:101300000168202211430160FEE700000010024046
:1013100050130008000800480038014018E400E0BD
:1013200000E100E010B500290AD00878002807D0B5
:1013300005487844FFF7DAF9002801D0002010BDF5
:101340000248784410BD0000760000006E000000E6
:10135000C0030000010000000000000000000000C9
:101360000000000000060000020000000000000075
:10137000000000000000000000000000000000006D
:101380000102030406070809B81400080000002041
:101390001400000004010008CC1400081400002010
:1013A0007406000020010008100100004300000046
:1013B000F8FFFFFF00404040404040404040414176
:1013C000414141404040404040404040404040401A
:1013D00040404040400502020202020202020202B4
:1013E00002020202022020202020202020202002B1
:1013F0000202020202029090909090901010101041
:1014000010101010101010101010101010101010DC
:101410000202020202028888888888880808080870
:10142000080808080808080808080808080808083C
:101430000202020240000000000000000000000064
:10144000000000000000000000000000000000009C
:10145000000000000000000000000000000000008C
:10146000000000000000000000000000000000007C
:10147000000000000000000000000000000000006C
:10148000000000000000000000000000000000005C
:10149000000000000000000000000000000000004C
:1014A000000000000000000000000000000000003C
:1014B000000000000000000000000000010000002B
:0C14C000040000000000000000127A0090
:04000005080000C12E
:00000001FF
