:020000040800F2
:10000000C80600209D010008A5110008F10D000898
:1000100000000000000000000000000000000000E0
:10002000000000000000000000000000D5110008E2
:100030000000000000000000A7110008D91100080E
:10004000AF010008AF010008AF010008AF010008D0
:10005000AF0100083D05000855050008AF01000884
:10006000AF010008AF010008AF010008AF010008B0
:10007000AF010008AF010008AF010008AF010008A0
:10008000AF010008AF010008AF010008AF01000890
:10009000AF010008AF010008AF010008AF01000880
:1000A000AF010008AF010008AF010008DD12000831
:1000B000AF010008AF010008AF010008AF01000860
:1000C00000F002F800F03EF80CA030C80838241800
:1000D0002D18A246671EAB4654465D46AC4201D180
:1000E00000F030F87E460F3E0FCCB6460126334274
:1000F00000D0FB1AA246AB4633431847CC1600008B
:10010000EC160000103A02D378C878C1FAD852072A
:1001100001D330C830C101D504680C6070470000BD
:100120000023002400250026103A01D378C1FBD813
:10013000520700D330C100D50B6070471FB51FBDFB
:1001400010B510BD00F09CF91146FFF7F7FF01F064
:10015000C9F900F0B4F903B4FFF7F2FF03BC00F0F3
:10016000B7F9000070B505460C46164602E00FCC04
:100170000FC5103E102EFAD2082E02D303CC03C5B1
:10018000083E042E07D301CC01C5361F03E02178B9
:100190002970641C6D1C761EF9D270BD074880471B
:1001A00007480047FEE7FEE7FEE7FEE7FEE7FEE75B
:1001B00004480549054A064B704700006D120008C7
:1001C000C1000008C8000020C8060020C8020020A6
:1001D000C8020020FEB5054610460C46184373D0F1
:1001E000AE468C460020AD1A01469C4167D3664658
:1001F000002701243D46B61A9D4102D313463A46D4
:100200002124654676462F04360C3E432D0CB61A43
:100210009D4104D3150C1B042B4312041034654676
:1002200076462F06360A3E432D0AB61A9D4104D360
:10023000150E1B022B4312020834654676462F0723
:1002400036093E432D09B61A9D4104D3150F1B01F3
:100250002B431201241D65467646AF07B6083E4380
:10026000AD08B61A9D4104D3950F9B002B43920015
:10027000A41C65467646EF0776083E436D08B61A1D
:100280009D411AD392185B41641C16E00018764613
:1002900065464941B71A9D410191009009D36046D6
:1002A000B11A98418E468446009801990025401C59
:1002B0006941DD0752082A435B08641EE6D5724691
:1002C000634603B0F0BDFFE700200146C046C046CC
:1002D0002A462346F5E701E004C0091F0429FBD2A2
:1002E0008B0701D50280801CC90700D002707047BF
:1002F00000290BD0C30702D00270401C491E0229FE
:1003000004D3830702D50280801C891EE3E7002204
:10031000EEE70022DFE7002203098B422CD3030A19
:100320008B4211D300239C464EE003460B433CD442
:10033000002243088B4231D303098B421CD3030AAA
:100340008B4201D394463FE0C3098B4201D3CB01DA
:10035000C01A524183098B4201D38B01C01A52410A
:1003600043098B4201D34B01C01A524103098B420E
:1003700001D30B01C01A5241C3088B4201D3CB00F9
:10038000C01A524183088B4201D38B00C01A5241DC
:1003900043088B4201D34B00C01A5241411A00D28C
:1003A00001465241104670475DE0CA0F00D04942F5
:1003B000031000D34042534000229C4603098B4265
:1003C0002DD3030A8B4212D3FC22890112BA030AED
:1003D0008B420CD3890192118B4208D3890192116F
:1003E0008B4204D389013AD0921100E08909C309F4
:1003F0008B4201D3CB01C01A524183098B4201D3F6
:100400008B01C01A524143098B4201D34B01C01AE0
:10041000524103098B4201D30B01C01A5241C30858
:100420008B4201D3CB00C01A524183088B4201D3C7
:100430008B00C01A5241D9D243088B4201D34B00E2
:10044000C01A5241411A00D20146634652415B1024
:10045000104601D34042002B00D549427047634605
:100460005B1000D3404201B50020C046C04602BD2B
:1004700070477047704700000048704768000020D0
:100480007546FFF7F9FFAE46050069465346C008BA
:10049000C000854618B020B5FFF78AFE60BC002773
:1004A0004908B6460026C0C5C0C5C0C5C0C5C0C540
:1004B000C0C5C0C5C0C5403D49008D46704710B598
:1004C0000446C046C0462046FFF745FE10BD00006A
:1004D00001491820ABBEFEE7260002007047092044
:1004E000C0064169FF2201329143416170470920F2
:1004F000C0064169FF22013211434161704730B5A6
:100500000920C0060268012109040A430260036849
:100510004A009343036044680B129C434460846820
:1005200003252D04AC438460C4681443C460C268CE
:100530008A43C26041699943416130BD00B500F012
:1005400073FC0348416901221143416100BD000071
:100550000004014000B500F085FC03484169082211
:100560001143416100BD00000004014072B6064C19
:1005700001256D027D26F6006069284360613046E2
:1005800000F004F8F8E700000008004870B50446E1
:1005900000F0E8F80546601C02D0044800782418F2
:1005A00000F0E0F8401BA042FAD370BD38000020F4
:1005B000F8B5002303240125BFE02E469E40B44633
:1005C00032407CD00E79B607B60F012E01D0022E34
:1005D00017D186682746B6465E00B7400096764635
:1005E000BE43B646CF68009EB74076463743876025
:1005F00046686746BE430F79FF06FF0F9F403743AB
:1006000047600E79F643B6070ED0C6682746B44653
:100610005E00B646B7406646BE43B4468F6876462F
:10062000B74066463743C7600E79B607B60F022E4D
:1006300014D1DE08B60036180096366A5F07B44655
:10064000FE0E0F27B646B7406646BE43B4460F6956
:100650007646B74066463743009E376206682746AF
:10066000B4465E00B646B7406646BE430F79B44610
:10067000BF07BF0F7646B7406646374307604E68F0
:10068000B603B60F58D0304FBE692E43BE61BE6967
:100690009F08F607F60F2D4EBF00BE190096B668EC
:1006A0000F27B4469E07360FB646B7406646BE4390
:1006B0000927FF06B446B84202D1002715E03BE007
:1006C000234FB84201D101270FE0224FB84201D198
:1006D00002270AE0204FB84201D1032705E01F4F4F
:1006E000B84201D1042700E005277646B7406646A8
:1006F0003743009EB7601A4E36684F689643FF0333
:1007000000D51643164F3E607E684F689643BF0380
:1007100000D51643124F7E60BE684F689643FF02B5
:1007200000D516430E4FBE60FE684F689643BF0269
:1007300000D516430A4AD6605B1C0A681646DE409E
:1007400000D03AE7F8BD0000001002400000014070
:100750000004004800080048000C00480010004851
:100760000004014001488068704700003800002004
:10077000024881680278891881607047380000203B
:1007800010B506480168102211430160032000F0F3
:1007900007F800F027F8002010BD000000200240FC
:1007A00070B504460D4D7D202978C000FFF7B3FDDC
:1007B00001460B480068FFF7AEFD00F001FB002882
:1007C00009D1042C07D200222146401E00F01EF859
:1007D00000206C6070BD012070BD0000380000205A
:1007E0004400002008B50848816901221143816155
:1007F000816911400091C26901040A43C261C06964
:100800000840009008BD00000010024010B500F044
:10081000E5FD10BDF8B50F4606005FD03D4D2868D8
:10082000C007C00FB84209D22868400840003843CA
:1008300028602868C007C00FB8424FD13068364CD6
:1008400081070CD5400704D56068072109020843D9
:1008500060606068F0218843B16808436060307868
:10086000C0072CD07068012810D0022811D00328AE
:1008700012D021688907002930DA61688908890067
:1008800001436160FFF76EFF009011E0216889036A
:10089000F1E721688901EEE7616BC903EBE7FFF738
:1008A00061FF0099411A1D48814201D90320F8BD1A
:1008B00060680C210840716889008842EFD128687F
:1008C000C007C00FB8420BD9286840084000384321
:1008D00028602868C007C00FB84201D00120F8BDC9
:1008E0003078400706D56068072109028843F1681F
:1008F0000843606000F018F86168094A0906090FAA
:10090000515CC840074908600320FFF749FF0020F9
:10091000F8BD0000002002400010024088130000D3
:10092000B81700084400002030B519A30FCB89B0D8
:100930006C460FC41AA30FCB0FC41D4A51680C207C
:100940000B4603401B48042B05D01B4D082B04D03D
:100950000C2B00D1284609B030BD8B021B0F6C4612
:10096000E45CD26A04AB1207120FC9039A5C890FC8
:10097000022901D0032901D0002301E000232846E9
:100980000021FFF727FC214600F0D4FCE3E700003C
:1009900002030405060708090A0B0C0D0E0F1010C0
:1009A0000102030405060708090A0B0C0D0E0F10BF
:1009B0000010024000127A00006CDC02FEB5040058
:1009C00070D02078F94EFA4DC00748D0686800070B
:1009D000800F01281FD068680007800F022804D10B
:1009E0006868C003800F022815D06168012919D0FA
:1009F00001208004002901D0052917D02968B143BE
:100A00002960296881432960606800281BD0FFF7AE
:100A1000A9FE074613E02868800320D560680028F7
:100A2000CED01CE0286830432860EDE729680143F8
:100A30002960F7E7FFF796FEC01B642870D8286886
:100A40008003F7D50BE0FFF78DFE074604E0FFF7C4
:100A500089FEC01B6428F1D828688003F7D4207869
:100A600080073FD568680007800F14D068680007CA
:100A7000800F022804D16868C003800F01280AD0C3
:100A8000E068002828681ED0012108432860FFF78D
:100A900069FE07460CE0286880070CD5E06801284D
:100AA00000D108E080E1FFF75DFEC01B0228C5D839
:100AB00028688007F7D52868F82188432169C9008C
:100AC000084328600EE0400840002860FFF74AFE17
:100AD000074604E0FFF746FEC01B0228AED8286890
:100AE0008007F7D42078000723D5E0690028686ADA
:100AF0000FD0012108436862FFF734FE074604E087
:100B0000FFF730FEC01B022898D8686A8007F7D527
:100B10000FE0400840006862FFF724FE074605E04A
:100B2000C3E0FFF71FFEC01B022887D8686A800752
:100B3000F7D4207804274007002861DA00200190CC
:100B4000E869C00008D4E969B8060143E961E969C8
:100B5000014001200091019096480168C90511D417
:100B60000168821511430160FFF7FCFD009005E06C
:100B7000FFF7F8FD0099401A642898D88D4800685E
:100B8000C005F5D5A06801280AD0002801D00528A5
:100B900011D0286A400840002862286AB84302E061
:100BA000286A012108432862A068002812D0FFF7B4
:100BB000D9FD00900AE0286A38432862F0E7FFF781
:100BC000D1FD0099411A7C4881426ED8286A80077D
:100BD000F5D50DE0FFF7C6FD009006E0FFF7C2FD7A
:100BE0000099411A744881425FD8286A8007F5D479
:100BF0000198002804D0E969012000078143E961D8
:100C00002078C00635D5606901280CD0401D686B7E
:100C100024D038436863686B400840006863FFF77E
:100C2000A1FD074622E0686B38436863686B0121C9
:100C300008436863FFF796FD074604E0FFF792FD5F
:100C4000C01B022831D8686B8007F7D5686BF82184
:100C50008843A169C900084368630AE0B843686330
:100C6000F4E7FFF77FFDC01B02281ED8686B8007E2
:100C7000F7D42078800637D568680007800F0328EE
:100C800014D068680007800F022804D16868C00388
:100C9000800F03280AD0206A0028686B16D03043E2
:100CA0006863FFF75FFD06460CE062E0686BC00317
:100CB0001AD5206A012877D116E0FFF753FD801B73
:100CC000022856D8686BC003F7D50DE0B0436863BF
:100CD000FFF748FD064604E0FFF744FD801B0228AD
:100CE00047D8686BC003F7D4606A002866D069688B
:100CF0000907890F022942D00126360602282868F2
:100D000005D0B0432860FFF72DFD044633E0B04323
:100D10002860FFF727FD074604E0FFF723FDC01B0F
:100D2000022826D828688001F7D4E86A216B0009D8
:100D300000010843E862A16AE06A084369687B220F
:100D4000D203914308436860286830432860FFF766
:100D500009FD044604E0FFF705FD001B022808D842
:100D600028688001F7D529E0FFF7FCFC001B02286A
:100D700001D90320FEBD28688001F5D41EE00128BA
:100D8000F8D06868E96A0322D203A36A02409A4253
:100D90000AD10907226B090F914205D10F2189045D
:100DA0000840E16A884209D00120FEBD0000010030
:100DB0000010024000700040881300000020F4E79B
:100DC000094910B5401E884201D9012010BD074CC9
:100DD00060610321081F00F001FB0020A0610720D3
:100DE0002061002010BD0000FFFFFF0000E000E0D8
:100DF000FEE700000B480168552212031143016011
:100E0000016852009143016042680F2189018A43C1
:100E100042608268FF231B039A43826042698A43CF
:100E200042617047000800480A4801690A4ACB0736
:100E30004021002B04D00123D36042690A4306E01D
:100E40000023D360064B054A5A6242698A434261D5
:100E5000704700000008004820000020FF7F0000CD
:100E6000000400400A4801690A4A0B078021002B50
:100E700004DA0123136142690A4307E00023136186
:100E80000123054A9B075A6242698A4342617047BF
:100E90000008004820000020FF7F000010B519481E
:100EA0000268C3218A43026082688A438260C16803
:100EB00082221143C160C16841229143C16012483E
:100EC000026809210A43026082680A438260C2689C
:100ED0000A43C2600D4881680D4A114081608168F3
:100EE0000C4A11438160052000F04AFA062000F008
:100EF00047FA0221052000F04FFA0221062000F0F7
:100F00004BFA10BD000800480004014000000140F9
:100F1000F00FFFFF022000000448416904229143C2
:100F20004161416908221143416170470004004852
:100F300004484169042211434161416908229143F7
:100F4000416170470004004810B5084A1178814299
:100F50000ADA074C2068002806D1491CC8B2107074
:100F600000F008F80A20206010BD000000000020FA
:100F70002400002010B5642806D8044CE26A6421DD
:100F80005043FFF7C8F9606310BD00000020004027
:100F900010B50020FFF7EEFF064900200870064854
:100FA00041690422914341614169082291434161B1
:100FB00010BD000000000020000400482448016823
:100FC0005022114301600168A022914301604268F0
:100FD0000C218A4342608368F02293438360C36894
:100FE0009343C36042698A4342610920C006016895
:100FF00001225202114301600268FF2101318A433C
:101000000260426810239A434260026A0F231B0465
:101010009A430262026A8B021A4302620D48C26955
:101020000A43C2610C48002101608161016282694A
:1010300068231A438261036A0122134303628262B6
:101040004B231B01C3624163016811430160704778
:10105000000400480010024000200040044841699C
:1010600080221143416141695200914341617047BF
:10107000000400480448416980229143416141696C
:1010800052001143416170470004004810B5084AFE
:10109000517881420ADA074C2068002806D1491CA1
:1010A000C8B2507000F008F80A20206010BD00009F
:1010B000000000202800002010B5642806D8044C49
:1010C000E26A64215043FFF726F9606310BD000017
:1010D0000048014010B50020FFF7EEFF0649002050
:1010E000487006484169802291434161416952003C
:1010F0009143416110BD0000000000200004004841
:1011000010B525480168052292031143016001686A
:101110005200914301604168FF2281329143416056
:1011200082680F2189038A438260C2688A43C26051
:101130000168420211430160026801028A430260B1
:1011400042684B129A434260426AF0239A434262D9
:10115000426A20231A434262104882690A4382612C
:101160000F480021016081610162826968231A438E
:101170008261036A01221343036282624B231B01D3
:10118000C3624163064940314B68D40323434B603B
:1011900001681143016010BD0004004800100240C6
:1011A00000480140FEE770470948416901225204A6
:1011B000114341614169520011434161416952004B
:1011C000114341618169012211438161704700002F
:1011D000001002407047000010B50F4C2068401E00
:1011E000206006D10D4902200860FFF7D1FEFFF70D
:1011F00071FFFFF7BDFA6068002801DD401E6060E6
:10120000A068002801DD401EA0606069002801DDA3
:10121000401E606110BD0000200000201000002072
:1012200010B592B034216846FFF773F800240F948C
:10123000022000900D9401200E9403901020099438
:10124000049010946846FFF7B9FB00280AD10720E4
:101250000D900E940F94002110940DA8FFF7DAFA68
:10126000002801D0FFF782F912B010BD70470000CE
:1012700010B5174886B08269012189030A4382614B
:10128000806914220840059012496846FEF76AFFFB
:101290000924E40669462046FFF78AF9606AFF21BF
:1012A0001131084360620C4C4520E06020680D213C
:1012B0000843206001211B2000F06EF81B2000F085
:1012C0005FF8206820210843206006B010BD0000B0
:1012D00000100240A4170008003801401048808820
:1012E000C1B2FF2902D00A2905D008E07D200D49AE
:1012F000C00008600DE00C480268521C02600C48F7
:101300000A4B02689954521C0260202A01D1002124
:1013100001600348203801682022114301607047B2
:101320002038014020000020180000204800002044
:101330001C000020F8B5040C8BB2264682B25E4336
:101340000D0C1046370C58433604801900217941A2
:1013500016466E43370C36048019794126466E4393
:101360008919F8BD30B47446641E2578641CAB42FC
:1013700000D21D46635D5B00E31830BC18470000D7
:10138000002805DBC106C90E01208840014908601C
:101390007047000000E100E08307FF22DB0E9A4067
:1013A0008907090E9940002808DB830809489B003B
:1013B0001B18186890430843186070470007000F17
:1013C0000838830804489B001B18D86990430843D9
:1013D000D861704700E400E000ED00E08307FF22E1
:1013E000DB0E9A408907090E9940002808DB830824
:1013F00009489B001B181868904308431860704701
:101400000007000F0838830804489B001B18D869A0
:1014100090430843D861704700E400E000ED00E02D
:10142000F0B52C4801680522120291430160016861
:10143000520011430160016AFF22120491430162CC
:10144000016A1122120411430162234AD069022168
:101450000843D061214800218161016281600160FF
:101460008369FF24023423438361836803252B436C
:1014700083601B4DC5626B104362066801231E43E7
:1014800006600920C00606680527BE430660066898
:101490000A273E430660066A360A36020662066A74
:1014A00022273E430662D0691843D06190048161CF
:1014B0000162816001608169214381618168032249
:1014C00011438160C562691041620168194301607E
:1014D000F0BD00000004004800100240000400407D
:1014E000FFFF0000FFF74CF9FFF79AFEFFF75CFEE5
:1014F000FFF780FCFFF7D2FCFFF701F8FFF75EFD76
:10150000FFF7FEFDFFF78CFFFFF7B2FE76490020E4
:101510004863764948637648426904218A434261B8
:10152000426908218A4342614169802291434161B5
:101530004169520091434161FFF776FCFFF792FC4D
:101540006C4F6D4E6D4C0025A069002802DD00F047
:10155000DBF80546796AA0688019814204D8012128
:101560008907496A814204D90120E060FEF7BFFF84
:1015700003E00020E060FEF7B2FF20690300FFF700
:10158000F1FE0A070C2E6B86B18B999EAC06DAE74A
:10159000132DD8D101202061D5E7594800680128D2
:1015A00013D00020FFF7E6FC564D2868012811D023
:1015B0000020FFF781FD5248296800680843C2D126
:1015C00002202061FFF7E4FC84E0A07840B2FFF73E
:1015D000BBFCE9E7A07840B2FFF758FDEBE7152D1B
:1015E00008D009DC112D1AD0122D1DD0132D14D0C6
:1015F000142DA8D10520CEE7202D1AD0212D1DD0E5
:10160000222D24D0232D9ED13E48006801289AD156
:1016100008202061FFF72EFD95E7012005E004205A
:101620002061FFF779FC14E003202061FFF780FCC4
:10163000F0E707202061FFF76FFC84E7304800687F
:10164000012880D106202061FFF772FC7BE709208A
:101650002061FFF703FD76E72948006801280CD0D8
:101660000020FFF787FC2748006801280AD00020E7
:10167000FFF722FD102D8AD1A2E7E07840B2FFF7F4
:1016800063FCF0E7E07840B2FFF700FDF2E7E078B6
:1016900040B2FFF759FCF5E719480068012809D066
:1016A0000020FFF767FC102DB6D102202061FFF764
:1016B0006FFC48E7A07840B2FFF746FCF3E711481B
:1016C0000068012809D00020FFF7F6FC102DA3D1F7
:1016D00002202061FFF7FEFC35E7A07840B2FFF75B
:1016E000D5FCF3E7022056E7002000400048014007
:1016F0000004004800040040FF7F000000000020BC
:101700002C0000203000002030B52549234B4A69C9
:101710000024985C521C4A61202A00D14C618A69DD
:10172000521E8A61222828D014DC132825D008DC18
:101730000A282BD0102820D011281ED012281BD107
:101740001BE0142819D0152817D0202815D02128DF
:1017500012D112E0402810D008DC23280DD0302808
:101760000BD0312809D0322806D106E0412804D018
:10177000422802D0432800D000204A699D5C0A2DEF
:1017800006D0521C202AF9D10022F7E7002030BDF4
:10179000521C4A61202AFAD14C6130BD4800002019
:1017A0000000002000060000020000000000000011
:1017B0000000000000000000000000000000000029
:1017C0000102030406070809E817000800000020CA
:1017D00048000000040100083018000848000020FC
:1017E00080060000200100080000325A00000000BE
:1017F000C80200000000000002000000000000001D
:101800000000000000000000E803000000000000ED
:10181000000000000000000000000000F4010000D3
:1018200001000000040000000000000000127A0027
:04000005080000C12E
:00000001FF
