:020000040800F2
:10000000B8060020650100086D100008890E000880
:1000100000000000000000000000000000000000E0
:100020000000000000000000000000009D1000081B
:1000300000000000000000006F1000089F10000882
:1000400077010008770100087701000877010008B0
:1000500077010008770100087701000877010008A0
:100060007701000877010008770100087701000890
:100070007701000877010008770100087701000880
:100080007701000877010008770100087701000870
:100090007701000877010008770100087701000860
:1000A0007701000877010008770100087701000850
:1000B0007701000877010008770100087701000840
:1000C00000F002F800F03EF80CA030C80838241800
:1000D0002D18A246671EAB4654465D46AC4201D180
:1000E00000F030F87E460F3E0FCCB6460126334274
:1000F00000D0FB1AA246AB4633431847AC110000B0
:10010000CC110000103A02D378C878C1FAD852074F
:1001100001D330C830C101D504680C6070470000BD
:100120000023002400250026103A01D378C1FBD813
:10013000520700D330C100D50B6070471FB51FBDFB
:1001400010B510BD00F07BF91146FFF7F7FF01F085
:1001500057F800F093F903B4FFF7F2FF03BC00F087
:1001600099F900000748804707480047FEE7FEE787
:10017000FEE7FEE7FEE7FEE704480549054A064BB1
:1001800070470000F7100008C1000008B800002008
:10019000B8060020B8020020B8020020FEB50546CF
:1001A00010460C46184373D0AE468C460020AD1A5C
:1001B00001469C4167D36646002701243D46B61A96
:1001C0009D4102D313463A462124654676462F04C4
:1001D000360C3E432D0CB61A9D4104D3150C1B045E
:1001E0002B4312041034654676462F06360A3E43EA
:1001F0002D0AB61A9D4104D3150E1B022B43120281
:100200000834654676462F0736093E432D09B61A4F
:100210009D4104D3150F1B012B431201241D65467C
:100220007646AF07B6083E43AD08B61A9D4104D3E3
:10023000950F9B002B439200A41C65467646EF0762
:1002400076083E436D08B61A9D411AD392185B4159
:10025000641C16E00018764665464941B71A9D4170
:100260000191009009D36046B11A98418E468446A8
:10027000009801990025401C6941DD0752082A4376
:100280005B08641EE6D57246634603B0F0BDFFE727
:1002900000200146C046C0462A462346F5E701E055
:1002A00004C0091F0429FBD28B0701D50280801CE2
:1002B000C90700D00270704700290BD0C30702D0D5
:1002C0000270401C491E022904D3830702D5028014
:1002D000801C891EE3E70022EEE70022DFE7002210
:1002E00003098B422CD3030A8B4211D300239C4673
:1002F0004EE003460B433CD4002243088B4231D3EB
:1003000003098B421CD3030A8B4201D394463FE07E
:10031000C3098B4201D3CB01C01A524183098B42DE
:1003200001D38B01C01A524143098B4201D34B01C7
:10033000C01A524103098B4201D30B01C01A52412A
:10034000C3088B4201D3CB00C01A524183088B42B1
:1003500001D38B00C01A524143088B4201D34B009A
:10036000C01A5241411A00D201465241104670470C
:100370005DE0CA0F00D04942031000D34042534011
:1003800000229C4603098B422DD3030A8B4212D3D1
:10039000FC22890112BA030A8B420CD38901921103
:1003A0008B4208D3890192118B4204D389013AD040
:1003B000921100E08909C3098B4201D3CB01C01A15
:1003C000524183098B4201D38B01C01A5241430928
:1003D0008B4201D34B01C01A524103098B4201D316
:1003E0000B01C01A5241C3088B4201D3CB00C01A83
:1003F000524183088B4201D38B00C01A5241D9D29B
:1004000043088B4201D34B00C01A5241411A00D21B
:100410000146634652415B10104601D34042002B17
:1004200000D54942704763465B1000D3404201B596
:100430000020C046C04602BD7047704770477546F1
:1004400000F024F8AE46050069465346C008C000D7
:10045000854618B020B5FFF78FFE60BC002749081D
:10046000B6460026C0C5C0C5C0C5C0C5C0C5C0C54C
:10047000C0C5C0C5403D49008D46704710B5044613
:10048000C046C0462046FFF766FE10BD00487047D4
:100490005800002001491820ABBEFEE726000200EC
:1004A0007047000010B505484169012252025140D1
:1004B00041617D20C00000F003F810BD0008004835
:1004C00070B5044600F0E8F80546601C02D0044808
:1004D0000078241800F0E0F8401BA042FAD370BD69
:1004E00000000020F8B5002303240125BFE02E46BC
:1004F0009E40B44632407CD00E79B607B60F012E2E
:1005000001D0022E17D186682746B6465E00B74056
:1005100000967646BE43B646CF68009EB740764604
:100520003743876046686746BE430F79FF06FF0F73
:100530009F40374347600E79F643B6070ED0C66832
:100540002746B4465E00B646B7406646BE43B4464C
:100550008F687646B74066463743C7600E79B60760
:10056000B60F022E14D1DE08B60036180096366A91
:100570005F07B446FE0E0F27B646B7406646BE4339
:10058000B4460F697646B74066463743009E3762E9
:1005900006682746B4465E00B646B7406646BE4388
:1005A0000F79B446BF07BF0F7646B740664637435C
:1005B00007604E68B603B60F58D0304FBE692E4361
:1005C000BE61BE699F08F607F60F2D4EBF00BE192B
:1005D0000096B6680F27B4469E07360FB646B7405A
:1005E0006646BE430927FF06B446B84202D100273B
:1005F00015E03BE0234FB84201D101270FE0224F25
:10060000B84201D102270AE0204FB84201D10327A6
:1006100005E01F4FB84201D1042700E005277646C8
:10062000B74066463743009EB7601A4E36684F683B
:100630009643FF0300D51643164F3E607E684F6811
:100640009643BF0300D51643124F7E60BE684F68C5
:100650009643FF0200D516430E4FBE60FE684F68FA
:100660009643BF0200D516430A4AD6605B1C0A684F
:100670001646DE4000D03AE7F8BD00000010024008
:10068000000001400004004800080048000C004839
:1006900000100048000401400148806870470000D5
:1006A0000000002002488168027889188160704744
:1006B0000000002010B506480168102211430160B7
:1006C000032000F007F800F027F8002010BD00001C
:1006D0000020024070B504460D4D7D202978C000F1
:1006E000FFF7FDFD01460B480068FFF7F8FD00F03D
:1006F00001FB002809D1042C07D200222146401E0C
:1007000000F01EF800206C6070BD012070BD00007C
:10071000000000200C00002008B508488169012273
:1007200011438161816911400091C26901040A434A
:10073000C261C0690840009008BD0000001002407E
:1007400010B500F03BFD10BDF8B50F4606005FD0B8
:100750003D4D2868C007C00FB84209D2286840083C
:100760004000384328602868C007C00FB8424FD106
:100770003068364C81070CD5400704D560680721E6
:100780000902084360606068F0218843B16808434B
:1007900060603078C0072CD07068012810D0022823
:1007A00011D0032812D021688907002930DA616846
:1007B0008908890001436160FFF76EFF009011E036
:1007C00021688903F1E721688901EEE7616BC903BC
:1007D000EBE7FFF761FF0099411A1D48814201D9FB
:1007E0000320F8BD60680C210840716889008842C8
:1007F000EFD12868C007C00FB8420BD9286840085D
:100800004000384328602868C007C00FB84201D0B4
:100810000120F8BD3078400706D56068072109023D
:100820008843F1680843606000F018F86168094A7D
:100830000906090F515CC840074908600320FFF70B
:1008400049FF0020F8BD00000020024000100240D7
:1008500088130000981200080C00002030B519A37E
:100860000FCB89B06C460FC41AA30FCB0FC41D4A1F
:1008700051680C200B4603401B48042B05D01B4D30
:10088000082B04D00C2B00D1284609B030BD8B02B8
:100890001B0F6C46E45CD26A04AB1207120FC9034B
:1008A0009A5C890F022901D0032901D0002301E0BD
:1008B000002328460021FFF771FC214600F066FC6A
:1008C000E3E7000002030405060708090A0B0C0D04
:1008D0000E0F10100102030405060708090A0B0C8D
:1008E0000D0E0F100010024000127A00006CDC02A6
:1008F000FEB5040070D02078F94EFA4DC00748D0FC
:1009000068680007800F01281FD068680007800F03
:10091000022804D16868C003800F022815D06168DE
:10092000012919D001208004002901D0052917D000
:100930002968B143296029688143296060680028DB
:100940001BD0FFF7A9FE074613E02868800320D5D7
:1009500060680028CED01CE0286830432860EDE7AE
:10096000296801432960F7E7FFF796FEC01B64285A
:1009700070D828688003F7D50BE0FFF78DFE074697
:1009800004E0FFF789FEC01B6428F1D828688003C3
:10099000F7D4207880073FD568680007800F14D00F
:1009A00068680007800F022804D16868C003800FC0
:1009B00001280AD0E068002828681ED001210843D9
:1009C0002860FFF769FE07460CE0286880070CD511
:1009D000E068012800D108E080E1FFF75DFEC01B60
:1009E0000228C5D828688007F7D52868F8218843E9
:1009F0002169C900084328600EE0400840002860D3
:100A0000FFF74AFE074604E0FFF746FEC01B022838
:100A1000AED828688007F7D42078000723D5E0698E
:100A20000028686A0FD0012108436862FFF734FE8E
:100A3000074604E0FFF730FEC01B022898D8686A1A
:100A40008007F7D50FE0400840006862FFF724FEFA
:100A5000074605E0C3E0FFF71FFEC01B022887D84A
:100A6000686A8007F7D4207804274007002861DAF5
:100A700000200190E869C00008D4E969B806014384
:100A8000E961E969014001200091019096480168FF
:100A9000C90511D40168821511430160FFF7FCFDFF
:100AA000009005E0FFF7F8FD0099401A642898D8F7
:100AB0008D480068C005F5D5A06801280AD0002837
:100AC00001D0052811D0286A400840002862286A11
:100AD000B84302E0286A012108432862A068002880
:100AE00012D0FFF7D9FD00900AE0286A3843286247
:100AF000F0E7FFF7D1FD0099411A7C4881426ED89A
:100B0000286A8007F5D50DE0FFF7C6FD009006E0E6
:100B1000FFF7C2FD0099411A744881425FD8286AE4
:100B20008007F5D40198002804D0E9690120000766
:100B30008143E9612078C00635D5606901280CD071
:100B4000401D686B24D038436863686B40084000E0
:100B50006863FFF7A1FD074622E0686B38436863CE
:100B6000686B012108436863FFF796FD074604E0C0
:100B7000FFF792FDC01B022831D8686B8007F7D5BC
:100B8000686BF8218843A169C900084368630AE0DB
:100B9000B8436863F4E7FFF77FFDC01B02281ED847
:100BA000686B8007F7D42078800637D5686800071F
:100BB000800F032814D068680007800F022804D132
:100BC0006868C003800F03280AD0206A0028686B79
:100BD00016D030436863FFF75FFD06460CE062E025
:100BE000686BC0031AD5206A012877D116E0FFF799
:100BF00053FD801B022856D8686BC003F7D50DE063
:100C0000B0436863FFF748FD064604E0FFF744FD84
:100C1000801B022847D8686BC003F7D4606A00289D
:100C200066D069680907890F022942D00126360675
:100C30000228286805D0B0432860FFF72DFD044640
:100C400033E0B0432860FFF727FD074604E0FFF7D5
:100C500023FDC01B022826D828688001F7D4E86A43
:100C6000216B000900010843E862A16AE06A0843B9
:100C700069687B22D2039143084368602868304347
:100C80002860FFF709FD044604E0FFF705FD001B9F
:100C9000022808D828688001F7D529E0FFF7FCFC76
:100CA000001B022801D90320FEBD28688001F5D46D
:100CB0001EE00128F8D06868E96A0322D203A36A1B
:100CC00002409A420AD10907226B090F914205D1CD
:100CD0000F2189040840E16A884209D00120FEBD45
:100CE0000000010000100240007000408813000066
:100CF0000020F4E7094910B5401E884201D90120BF
:100D000010BD074C60610321081F00F057FA002056
:100D1000A06107202061002010BD0000FFFFFF0040
:100D200000E000E0F0B502462032137F012B21D015
:100D3000012515770223537706687468B368702716
:100D4000BC430F682743776000680B4CA04208D073
:100D5000AC07A04205D0094CA04202D0084CA042EA
:100D600004D180244968A34319438160557700204A
:100D70001077F0BD0220F0BD002C014000040040BF
:100D800000400140F8B50D46040005D02646203647
:100D9000707F002802D006E00120F8BD00203077E7
:100DA000204600F043F802207077206881681C4AD2
:100DB00011408160211D206800F09EF92268906832
:100DC0009369116A2F680743BC461648AF69034010
:100DD0003F021F43A868144B3843EF6918403F0295
:100DE0000743EB6828693B432F6A00013F03384300
:100DF0001843AA2399436B686D6967462D010D431B
:100E00002B43976021688861206803620120403489
:100E1000A071B077F077A070E07070770020F8BD17
:100E2000F8BFFFFFFCFCFFFF0303FFFF10B586B018
:100E3000044614216846FFF750FA0121206889070B
:100E400088421CD10F48C16901221143C161C169A7
:100E5000114005914269012149040A4342614069F8
:100E6000084005900320009000200221029003908A
:100E70000191049109206946C006FFF733FB06B0D3
:100E800010BD000000100240FEE700000B480168A2
:100E90005522120311430160016852009143016021
:100EA00042680F2189018A4342608268FF231B0345
:100EB0009A43826042698A43426170470008004851
:100EC000244801685022114301600168A022914327
:100ED000016042680C218A4342608368F022934398
:100EE0008360C3689343C36042698A4342610920B7
:100EF000C006016801225202114301600268FF210D
:100F000001318A430260426810239A434260026AB8
:100F10000F231B049A430262026A8B021A43026285
:100F20000D48C2690A43C2610C4800210160816119
:100F30000162826968231A438261036A01221343B2
:100F4000036282624B231B01C36241630168114348
:100F5000016070470004004800100240002000407B
:100F600010B525480168052292031143016001680C
:100F70005200914301604168FF22813291434160F8
:100F800082680F2189038A438260C2688A43C260F3
:100F90000168420211430160026801028A43026053
:100FA00042684B129A434260426AF0239A4342627B
:100FB000426A20231A434262104882690A438261CE
:100FC0000F480021016081610162826968231A4330
:100FD0008261036A01221343036282624B231B0175
:100FE000C3624163064940314B68D40323434B60DD
:100FF00001681143016010BD000400480010024068
:101000000048014010B58CB024216846FFF765F90F
:10101000002401211448099489070A9412C004602D
:101020008460611E046141600320009001200194EE
:1010300002900394069004940594079469460894DA
:101040000948FFF79FFE002801D072B6FEE7099419
:1010500009A905480A94FFF765FE002801D072B679
:10106000FEE70CB010BD000010000020FEE7704746
:10107000094841690122520411434161416952000A
:10108000114341614169520011434161816901226B
:10109000114381617047000000100240704710B595
:1010A000FFF700FB10BD10B592B034216846FFF782
:1010B00014F900240F94022000900D9401200E9446
:1010C000039010200994049010946846FFF710FCD8
:1010D000002801D072B6FEE707200D900E940F9401
:1010E000002110940DA8FFF72FFB002801D072B645
:1010F000FEE712B010BD7047F0B502681D4B012429
:10110000A4071D4D984203D0A04201D0A84203D1AC
:101110007026B2434E683243184E194F98420DD094
:10112000A0420BD0A84209D0164CA04206D0B04233
:1011300004D0B84202D0144CA04204D103242402AB
:10114000A243CC6822438024A2434C69224302601C
:101150008A68C2620A688262984206D0B04204D0AD
:10116000B84202D0084A904201D1096901630121C5
:101170004161F0BD002C01400004004000400140EE
:10118000004401400020004000480140F8B5040C34
:101190008BB2264682B25E430D0C1046370C584384
:1011A000360480190021794116466E43370C360407
:1011B0008019794126466E438919F8BD8307FF22BD
:1011C000DB0E9A408907090E9940002808DB830846
:1011D00009489B001B181868904308431860704723
:1011E0000007000F0838830804489B001B18D869C3
:1011F00090430843D861704700E400E000ED00E050
:1012000008B5FFF757FAFFF74EFF1D484269012165
:1012100049040A434261406908400090FFF7F2FE2A
:10122000FFF726FFFFF732FEFFF74AFEFFF798FEB3
:1012300014497820486314494863FF2013492D302E
:101240004863134D8F158026124CFFF72BF9686900
:101250000421084368616869304368610807416A8E
:101260000029616901D0394300E0B9436161406AF6
:101270000028606902D0B0436061E6E73043FBE7D5
:10128000001002400048014000440140002000409E
:1012900000040048000800480000000000000000B2
:1012A0000102030406070809C81200080000002014
:1012B0001000000004010008D812000810000020EF
:1012C000A806000020010008010000000400000042
:0812D0000000000000127A008A
:04000005080000C12E
:00000001FF
